{
	"AuctionContract.sol": {
		"Auctions": {
			"abi": [
				{
					"inputs": [],
					"stateMutability": "nonpayable",
					"type": "constructor"
				},
				{
					"inputs": [
						{
							"internalType": "address",
							"name": "",
							"type": "address"
						}
					],
					"name": "bidEntered",
					"outputs": [
						{
							"internalType": "uint256",
							"name": "",
							"type": "uint256"
						}
					],
					"stateMutability": "view",
					"type": "function"
				},
				{
					"inputs": [],
					"name": "durationTime",
					"outputs": [
						{
							"internalType": "uint256",
							"name": "",
							"type": "uint256"
						}
					],
					"stateMutability": "view",
					"type": "function"
				},
				{
					"inputs": [],
					"name": "endAuction",
					"outputs": [],
					"stateMutability": "payable",
					"type": "function"
				},
				{
					"inputs": [],
					"name": "getBid",
					"outputs": [
						{
							"internalType": "uint256",
							"name": "",
							"type": "uint256"
						}
					],
					"stateMutability": "view",
					"type": "function"
				},
				{
					"inputs": [],
					"name": "getWinnwrBidder",
					"outputs": [
						{
							"internalType": "address",
							"name": "",
							"type": "address"
						}
					],
					"stateMutability": "view",
					"type": "function"
				},
				{
					"inputs": [],
					"name": "owner",
					"outputs": [
						{
							"internalType": "address",
							"name": "",
							"type": "address"
						}
					],
					"stateMutability": "view",
					"type": "function"
				},
				{
					"inputs": [],
					"name": "setBid",
					"outputs": [],
					"stateMutability": "payable",
					"type": "function"
				},
				{
					"inputs": [],
					"name": "startDate",
					"outputs": [
						{
							"internalType": "uint256",
							"name": "",
							"type": "uint256"
						}
					],
					"stateMutability": "view",
					"type": "function"
				},
				{
					"inputs": [],
					"name": "startinglValue",
					"outputs": [
						{
							"internalType": "uint256",
							"name": "",
							"type": "uint256"
						}
					],
					"stateMutability": "view",
					"type": "function"
				}
			],
			"devdoc": {
				"kind": "dev",
				"methods": {},
				"version": 1
			},
			"evm": {
				"assembly": "    /* \"AuctionContract.sol\":60:1438  contract Auctions {... */\n  mstore(0x40, 0x80)\n    /* \"AuctionContract.sol\":358:525  constructor() {... */\n  callvalue\n  dup1\n  iszero\n  tag_1\n  jumpi\n  0x00\n  dup1\n  revert\ntag_1:\n  pop\n    /* \"AuctionContract.sol\":391:401  msg.sender */\n  caller\n    /* \"AuctionContract.sol\":383:388  owner */\n  0x05\n  0x00\n    /* \"AuctionContract.sol\":383:401  owner = msg.sender */\n  0x0100\n  exp\n  dup2\n  sload\n  dup2\n  0xffffffffffffffffffffffffffffffffffffffff\n  mul\n  not\n  and\n  swap1\n  dup4\n  0xffffffffffffffffffffffffffffffffffffffff\n  and\n  mul\n  or\n  swap1\n  sstore\n  pop\n    /* \"AuctionContract.sol\":429:435  1 gwei */\n  0x3b9aca00\n    /* \"AuctionContract.sol\":412:426  startinglValue */\n  0x00\n    /* \"AuctionContract.sol\":412:435  startinglValue = 1 gwei */\n  dup2\n  swap1\n  sstore\n  pop\n    /* \"AuctionContract.sol\":458:473  block.timestamp */\n  timestamp\n    /* \"AuctionContract.sol\":446:455  startDate */\n  0x01\n    /* \"AuctionContract.sol\":446:473  startDate = block.timestamp */\n  dup2\n  swap1\n  sstore\n  pop\n    /* \"AuctionContract.sol\":511:517  7 days */\n  0x093a80\n    /* \"AuctionContract.sol\":499:508  startDate */\n  sload(0x01)\n    /* \"AuctionContract.sol\":499:517  startDate + 7 days */\n  tag_4\n  swap2\n  swap1\n  tag_5\n  jump\t// in\ntag_4:\n    /* \"AuctionContract.sol\":484:496  durationTime */\n  0x02\n    /* \"AuctionContract.sol\":484:517  durationTime = startDate + 7 days */\n  dup2\n  swap1\n  sstore\n  pop\n    /* \"AuctionContract.sol\":60:1438  contract Auctions {... */\n  jump(tag_6)\n    /* \"#utility.yul\":7:84   */\ntag_7:\n    /* \"#utility.yul\":44:51   */\n  0x00\n    /* \"#utility.yul\":73:78   */\n  dup2\n    /* \"#utility.yul\":62:78   */\n  swap1\n  pop\n    /* \"#utility.yul\":7:84   */\n  swap2\n  swap1\n  pop\n  jump\t// out\n    /* \"#utility.yul\":90:270   */\ntag_8:\n    /* \"#utility.yul\":138:215   */\n  0x4e487b7100000000000000000000000000000000000000000000000000000000\n    /* \"#utility.yul\":135:136   */\n  0x00\n    /* \"#utility.yul\":128:216   */\n  mstore\n    /* \"#utility.yul\":235:239   */\n  0x11\n    /* \"#utility.yul\":232:233   */\n  0x04\n    /* \"#utility.yul\":225:240   */\n  mstore\n    /* \"#utility.yul\":259:263   */\n  0x24\n    /* \"#utility.yul\":256:257   */\n  0x00\n    /* \"#utility.yul\":249:264   */\n  revert\n    /* \"#utility.yul\":276:467   */\ntag_5:\n    /* \"#utility.yul\":316:319   */\n  0x00\n    /* \"#utility.yul\":335:355   */\n  tag_13\n    /* \"#utility.yul\":353:354   */\n  dup3\n    /* \"#utility.yul\":335:355   */\n  tag_7\n  jump\t// in\ntag_13:\n    /* \"#utility.yul\":330:355   */\n  swap2\n  pop\n    /* \"#utility.yul\":369:389   */\n  tag_14\n    /* \"#utility.yul\":387:388   */\n  dup4\n    /* \"#utility.yul\":369:389   */\n  tag_7\n  jump\t// in\ntag_14:\n    /* \"#utility.yul\":364:389   */\n  swap3\n  pop\n    /* \"#utility.yul\":412:413   */\n  dup3\n    /* \"#utility.yul\":409:410   */\n  dup3\n    /* \"#utility.yul\":405:414   */\n  add\n    /* \"#utility.yul\":398:414   */\n  swap1\n  pop\n    /* \"#utility.yul\":433:436   */\n  dup1\n    /* \"#utility.yul\":430:431   */\n  dup3\n    /* \"#utility.yul\":427:437   */\n  gt\n    /* \"#utility.yul\":424:460   */\n  iszero\n  tag_15\n  jumpi\n    /* \"#utility.yul\":440:458   */\n  tag_16\n  tag_8\n  jump\t// in\ntag_16:\n    /* \"#utility.yul\":424:460   */\ntag_15:\n    /* \"#utility.yul\":276:467   */\n  swap3\n  swap2\n  pop\n  pop\n  jump\t// out\n    /* \"AuctionContract.sol\":60:1438  contract Auctions {... */\ntag_6:\n  dataSize(sub_0)\n  dup1\n  dataOffset(sub_0)\n  0x00\n  codecopy\n  0x00\n  return\nstop\n\nsub_0: assembly {\n        /* \"AuctionContract.sol\":60:1438  contract Auctions {... */\n      mstore(0x40, 0x80)\n      jumpi(tag_1, lt(calldatasize, 0x04))\n      shr(0xe0, calldataload(0x00))\n      dup1\n      0x7a433acb\n      gt\n      tag_11\n      jumpi\n      dup1\n      0x7a433acb\n      eq\n      tag_6\n      jumpi\n      dup1\n      0x8da5cb5b\n      eq\n      tag_7\n      jumpi\n      dup1\n      0xe08de3a4\n      eq\n      tag_8\n      jumpi\n      dup1\n      0xf8b75fb5\n      eq\n      tag_9\n      jumpi\n      dup1\n      0xfe67a54b\n      eq\n      tag_10\n      jumpi\n      jump(tag_1)\n    tag_11:\n      dup1\n      0x099a019d\n      eq\n      tag_2\n      jumpi\n      dup1\n      0x0b97bc86\n      eq\n      tag_3\n      jumpi\n      dup1\n      0x0f2efc66\n      eq\n      tag_4\n      jumpi\n      dup1\n      0x523cb4d9\n      eq\n      tag_5\n      jumpi\n    tag_1:\n      0x00\n      dup1\n      revert\n        /* \"AuctionContract.sol\":637:722  function getBid () external view returns(uint256) {... */\n    tag_2:\n      callvalue\n      dup1\n      iszero\n      tag_12\n      jumpi\n      0x00\n      dup1\n      revert\n    tag_12:\n      pop\n      tag_13\n      tag_14\n      jump\t// in\n    tag_13:\n      mload(0x40)\n      tag_15\n      swap2\n      swap1\n      tag_16\n      jump\t// in\n    tag_15:\n      mload(0x40)\n      dup1\n      swap2\n      sub\n      swap1\n      return\n        /* \"AuctionContract.sol\":121:145  uint256 public startDate */\n    tag_3:\n      callvalue\n      dup1\n      iszero\n      tag_17\n      jumpi\n      0x00\n      dup1\n      revert\n    tag_17:\n      pop\n      tag_18\n      tag_19\n      jump\t// in\n    tag_18:\n      mload(0x40)\n      tag_20\n      swap2\n      swap1\n      tag_16\n      jump\t// in\n    tag_20:\n      mload(0x40)\n      dup1\n      swap2\n      sub\n      swap1\n      return\n        /* \"AuctionContract.sol\":303:349  mapping (address => uint256) public bidEntered */\n    tag_4:\n      callvalue\n      dup1\n      iszero\n      tag_21\n      jumpi\n      0x00\n      dup1\n      revert\n    tag_21:\n      pop\n      tag_22\n      0x04\n      dup1\n      calldatasize\n      sub\n      dup2\n      add\n      swap1\n      tag_23\n      swap2\n      swap1\n      tag_24\n      jump\t// in\n    tag_23:\n      tag_25\n      jump\t// in\n    tag_22:\n      mload(0x40)\n      tag_26\n      swap2\n      swap1\n      tag_16\n      jump\t// in\n    tag_26:\n      mload(0x40)\n      dup1\n      swap2\n      sub\n      swap1\n      return\n        /* \"AuctionContract.sol\":730:1285  function setBid() external payable {... */\n    tag_5:\n      tag_27\n      tag_28\n      jump\t// in\n    tag_27:\n      stop\n        /* \"AuctionContract.sol\":85:114  uint256 public startinglValue */\n    tag_6:\n      callvalue\n      dup1\n      iszero\n      tag_29\n      jumpi\n      0x00\n      dup1\n      revert\n    tag_29:\n      pop\n      tag_30\n      tag_31\n      jump\t// in\n    tag_30:\n      mload(0x40)\n      tag_32\n      swap2\n      swap1\n      tag_16\n      jump\t// in\n    tag_32:\n      mload(0x40)\n      dup1\n      swap2\n      sub\n      swap1\n      return\n        /* \"AuctionContract.sol\":276:296  address public owner */\n    tag_7:\n      callvalue\n      dup1\n      iszero\n      tag_33\n      jumpi\n      0x00\n      dup1\n      revert\n    tag_33:\n      pop\n      tag_34\n      tag_35\n      jump\t// in\n    tag_34:\n      mload(0x40)\n      tag_36\n      swap2\n      swap1\n      tag_37\n      jump\t// in\n    tag_36:\n      mload(0x40)\n      dup1\n      swap2\n      sub\n      swap1\n      return\n        /* \"AuctionContract.sol\":533:629  function getWinnwrBidder() external view returns(address) {... */\n    tag_8:\n      callvalue\n      dup1\n      iszero\n      tag_38\n      jumpi\n      0x00\n      dup1\n      revert\n    tag_38:\n      pop\n      tag_39\n      tag_40\n      jump\t// in\n    tag_39:\n      mload(0x40)\n      tag_41\n      swap2\n      swap1\n      tag_37\n      jump\t// in\n    tag_41:\n      mload(0x40)\n      dup1\n      swap2\n      sub\n      swap1\n      return\n        /* \"AuctionContract.sol\":152:179  uint256 public durationTime */\n    tag_9:\n      callvalue\n      dup1\n      iszero\n      tag_42\n      jumpi\n      0x00\n      dup1\n      revert\n    tag_42:\n      pop\n      tag_43\n      tag_44\n      jump\t// in\n    tag_43:\n      mload(0x40)\n      tag_45\n      swap2\n      swap1\n      tag_16\n      jump\t// in\n    tag_45:\n      mload(0x40)\n      dup1\n      swap2\n      sub\n      swap1\n      return\n        /* \"AuctionContract.sol\":1293:1433  function endAuction() external payable {... */\n    tag_10:\n      tag_46\n      tag_47\n      jump\t// in\n    tag_46:\n      stop\n        /* \"AuctionContract.sol\":637:722  function getBid () external view returns(uint256) {... */\n    tag_14:\n        /* \"AuctionContract.sol\":678:685  uint256 */\n      0x00\n        /* \"AuctionContract.sol\":705:714  bestOffer */\n      sload(0x03)\n        /* \"AuctionContract.sol\":698:714  return bestOffer */\n      swap1\n      pop\n        /* \"AuctionContract.sol\":637:722  function getBid () external view returns(uint256) {... */\n      swap1\n      jump\t// out\n        /* \"AuctionContract.sol\":121:145  uint256 public startDate */\n    tag_19:\n      sload(0x01)\n      dup2\n      jump\t// out\n        /* \"AuctionContract.sol\":303:349  mapping (address => uint256) public bidEntered */\n    tag_25:\n      mstore(0x20, 0x06)\n      dup1\n      0x00\n      mstore\n      keccak256(0x00, 0x40)\n      0x00\n      swap2\n      pop\n      swap1\n      pop\n      sload\n      dup2\n      jump\t// out\n        /* \"AuctionContract.sol\":730:1285  function setBid() external payable {... */\n    tag_28:\n        /* \"AuctionContract.sol\":798:799  0 */\n      0x00\n        /* \"AuctionContract.sol\":784:794  checkpiont */\n      0x04\n      0x14\n      swap1\n      sload\n      swap1\n      0x0100\n      exp\n      swap1\n      div\n      0xff\n      and\n        /* \"AuctionContract.sol\":784:799  checkpiont == 0 */\n      0xff\n      and\n      eq\n        /* \"AuctionContract.sol\":776:822  require(checkpiont == 0, \"The auction ended.\") */\n      tag_50\n      jumpi\n      mload(0x40)\n      0x08c379a000000000000000000000000000000000000000000000000000000000\n      dup2\n      mstore\n      0x04\n      add\n      tag_51\n      swap1\n      tag_52\n      jump\t// in\n    tag_51:\n      mload(0x40)\n      dup1\n      swap2\n      sub\n      swap1\n      revert\n    tag_50:\n        /* \"AuctionContract.sol\":833:854  uint256 _offeredValue */\n      0x00\n        /* \"AuctionContract.sol\":857:866  msg.value */\n      callvalue\n        /* \"AuctionContract.sol\":833:866  uint256 _offeredValue = msg.value */\n      swap1\n      pop\n        /* \"AuctionContract.sol\":901:910  bestOffer */\n      sload(0x03)\n        /* \"AuctionContract.sol\":885:898  _offeredValue */\n      dup2\n        /* \"AuctionContract.sol\":885:910  _offeredValue > bestOffer */\n      gt\n        /* \"AuctionContract.sol\":877:955  require(_offeredValue > bestOffer, \"Your offer is lower than the best value.\") */\n      tag_53\n      jumpi\n      mload(0x40)\n      0x08c379a000000000000000000000000000000000000000000000000000000000\n      dup2\n      mstore\n      0x04\n      add\n      tag_54\n      swap1\n      tag_55\n      jump\t// in\n    tag_54:\n      mload(0x40)\n      dup1\n      swap2\n      sub\n      swap1\n      revert\n    tag_53:\n        /* \"AuctionContract.sol\":987:996  bestOffer */\n      sload(0x03)\n        /* \"AuctionContract.sol\":971:984  _offeredValue */\n      dup2\n        /* \"AuctionContract.sol\":971:996  _offeredValue > bestOffer */\n      gt\n        /* \"AuctionContract.sol\":968:1278  if(_offeredValue > bestOffer) {... */\n      iszero\n      tag_56\n      jumpi\n        /* \"AuctionContract.sol\":1013:1032  address _addrBidder */\n      0x00\n        /* \"AuctionContract.sol\":1035:1045  msg.sender */\n      caller\n        /* \"AuctionContract.sol\":1013:1045  address _addrBidder = msg.sender */\n      swap1\n      pop\n        /* \"AuctionContract.sol\":1072:1085  _offeredValue */\n      dup2\n        /* \"AuctionContract.sol\":1060:1069  bestOffer */\n      0x03\n        /* \"AuctionContract.sol\":1060:1085  bestOffer = _offeredValue */\n      dup2\n      swap1\n      sstore\n      pop\n        /* \"AuctionContract.sol\":1115:1126  _addrBidder */\n      dup1\n        /* \"AuctionContract.sol\":1100:1112  winnerBidder */\n      0x04\n      0x00\n        /* \"AuctionContract.sol\":1100:1126  winnerBidder = _addrBidder */\n      0x0100\n      exp\n      dup2\n      sload\n      dup2\n      0xffffffffffffffffffffffffffffffffffffffff\n      mul\n      not\n      and\n      swap1\n      dup4\n      0xffffffffffffffffffffffffffffffffffffffff\n      and\n      mul\n      or\n      swap1\n      sstore\n      pop\n        /* \"AuctionContract.sol\":1169:1182  _offeredValue */\n      dup2\n        /* \"AuctionContract.sol\":1141:1151  bidEntered */\n      0x06\n        /* \"AuctionContract.sol\":1141:1165  bidEntered [_addrBidder] */\n      0x00\n        /* \"AuctionContract.sol\":1153:1164  _addrBidder */\n      dup4\n        /* \"AuctionContract.sol\":1141:1165  bidEntered [_addrBidder] */\n      0xffffffffffffffffffffffffffffffffffffffff\n      and\n      0xffffffffffffffffffffffffffffffffffffffff\n      and\n      dup2\n      mstore\n      0x20\n      add\n      swap1\n      dup2\n      mstore\n      0x20\n      add\n      0x00\n      keccak256\n      0x00\n        /* \"AuctionContract.sol\":1141:1182  bidEntered [_addrBidder] += _offeredValue */\n      dup3\n      dup3\n      sload\n      tag_57\n      swap2\n      swap1\n      tag_58\n      jump\t// in\n    tag_57:\n      swap3\n      pop\n      pop\n      dup2\n      swap1\n      sstore\n      pop\n        /* \"AuctionContract.sol\":998:1194  {... */\n      pop\n        /* \"AuctionContract.sol\":968:1278  if(_offeredValue > bestOffer) {... */\n      jump(tag_59)\n    tag_56:\n        /* \"AuctionContract.sol\":1224:1266  revert (\"You didn't beat the best offer.\") */\n      mload(0x40)\n      0x08c379a000000000000000000000000000000000000000000000000000000000\n      dup2\n      mstore\n      0x04\n      add\n      tag_60\n      swap1\n      tag_61\n      jump\t// in\n    tag_60:\n      mload(0x40)\n      dup1\n      swap2\n      sub\n      swap1\n      revert\n        /* \"AuctionContract.sol\":968:1278  if(_offeredValue > bestOffer) {... */\n    tag_59:\n        /* \"AuctionContract.sol\":765:1285  {... */\n      pop\n        /* \"AuctionContract.sol\":730:1285  function setBid() external payable {... */\n      jump\t// out\n        /* \"AuctionContract.sol\":85:114  uint256 public startinglValue */\n    tag_31:\n      sload(0x00)\n      dup2\n      jump\t// out\n        /* \"AuctionContract.sol\":276:296  address public owner */\n    tag_35:\n      0x05\n      0x00\n      swap1\n      sload\n      swap1\n      0x0100\n      exp\n      swap1\n      div\n      0xffffffffffffffffffffffffffffffffffffffff\n      and\n      dup2\n      jump\t// out\n        /* \"AuctionContract.sol\":533:629  function getWinnwrBidder() external view returns(address) {... */\n    tag_40:\n        /* \"AuctionContract.sol\":582:589  address */\n      0x00\n        /* \"AuctionContract.sol\":609:621  winnerBidder */\n      0x04\n      0x00\n      swap1\n      sload\n      swap1\n      0x0100\n      exp\n      swap1\n      div\n      0xffffffffffffffffffffffffffffffffffffffff\n      and\n        /* \"AuctionContract.sol\":602:621  return winnerBidder */\n      swap1\n      pop\n        /* \"AuctionContract.sol\":533:629  function getWinnwrBidder() external view returns(address) {... */\n      swap1\n      jump\t// out\n        /* \"AuctionContract.sol\":152:179  uint256 public durationTime */\n    tag_44:\n      sload(0x02)\n      dup2\n      jump\t// out\n        /* \"AuctionContract.sol\":1293:1433  function endAuction() external payable {... */\n    tag_47:\n        /* \"AuctionContract.sol\":1358:1368  msg.sender */\n      caller\n        /* \"AuctionContract.sol\":1351:1368  owner==msg.sender */\n      0xffffffffffffffffffffffffffffffffffffffff\n      and\n        /* \"AuctionContract.sol\":1351:1356  owner */\n      0x05\n      0x00\n      swap1\n      sload\n      swap1\n      0x0100\n      exp\n      swap1\n      div\n      0xffffffffffffffffffffffffffffffffffffffff\n      and\n        /* \"AuctionContract.sol\":1351:1368  owner==msg.sender */\n      0xffffffffffffffffffffffffffffffffffffffff\n      and\n      eq\n        /* \"AuctionContract.sol\":1343:1400  require(owner==msg.sender, \"You don't have permissions.\") */\n      tag_64\n      jumpi\n      mload(0x40)\n      0x08c379a000000000000000000000000000000000000000000000000000000000\n      dup2\n      mstore\n      0x04\n      add\n      tag_65\n      swap1\n      tag_66\n      jump\t// in\n    tag_65:\n      mload(0x40)\n      dup1\n      swap2\n      sub\n      swap1\n      revert\n    tag_64:\n        /* \"AuctionContract.sol\":1424:1425  1 */\n      0x01\n        /* \"AuctionContract.sol\":1411:1421  checkpiont */\n      0x04\n      0x14\n        /* \"AuctionContract.sol\":1411:1425  checkpiont = 1 */\n      0x0100\n      exp\n      dup2\n      sload\n      dup2\n      0xff\n      mul\n      not\n      and\n      swap1\n      dup4\n      0xff\n      and\n      mul\n      or\n      swap1\n      sstore\n      pop\n        /* \"AuctionContract.sol\":1293:1433  function endAuction() external payable {... */\n      jump\t// out\n        /* \"#utility.yul\":7:84   */\n    tag_67:\n        /* \"#utility.yul\":44:51   */\n      0x00\n        /* \"#utility.yul\":73:78   */\n      dup2\n        /* \"#utility.yul\":62:78   */\n      swap1\n      pop\n        /* \"#utility.yul\":7:84   */\n      swap2\n      swap1\n      pop\n      jump\t// out\n        /* \"#utility.yul\":90:208   */\n    tag_68:\n        /* \"#utility.yul\":177:201   */\n      tag_90\n        /* \"#utility.yul\":195:200   */\n      dup2\n        /* \"#utility.yul\":177:201   */\n      tag_67\n      jump\t// in\n    tag_90:\n        /* \"#utility.yul\":172:175   */\n      dup3\n        /* \"#utility.yul\":165:202   */\n      mstore\n        /* \"#utility.yul\":90:208   */\n      pop\n      pop\n      jump\t// out\n        /* \"#utility.yul\":214:436   */\n    tag_16:\n        /* \"#utility.yul\":307:311   */\n      0x00\n        /* \"#utility.yul\":345:347   */\n      0x20\n        /* \"#utility.yul\":334:343   */\n      dup3\n        /* \"#utility.yul\":330:348   */\n      add\n        /* \"#utility.yul\":322:348   */\n      swap1\n      pop\n        /* \"#utility.yul\":358:429   */\n      tag_92\n        /* \"#utility.yul\":426:427   */\n      0x00\n        /* \"#utility.yul\":415:424   */\n      dup4\n        /* \"#utility.yul\":411:428   */\n      add\n        /* \"#utility.yul\":402:408   */\n      dup5\n        /* \"#utility.yul\":358:429   */\n      tag_68\n      jump\t// in\n    tag_92:\n        /* \"#utility.yul\":214:436   */\n      swap3\n      swap2\n      pop\n      pop\n      jump\t// out\n        /* \"#utility.yul\":523:640   */\n    tag_70:\n        /* \"#utility.yul\":632:633   */\n      0x00\n        /* \"#utility.yul\":629:630   */\n      dup1\n        /* \"#utility.yul\":622:634   */\n      revert\n        /* \"#utility.yul\":769:895   */\n    tag_72:\n        /* \"#utility.yul\":806:813   */\n      0x00\n        /* \"#utility.yul\":846:888   */\n      0xffffffffffffffffffffffffffffffffffffffff\n        /* \"#utility.yul\":839:844   */\n      dup3\n        /* \"#utility.yul\":835:889   */\n      and\n        /* \"#utility.yul\":824:889   */\n      swap1\n      pop\n        /* \"#utility.yul\":769:895   */\n      swap2\n      swap1\n      pop\n      jump\t// out\n        /* \"#utility.yul\":901:997   */\n    tag_73:\n        /* \"#utility.yul\":938:945   */\n      0x00\n        /* \"#utility.yul\":967:991   */\n      tag_98\n        /* \"#utility.yul\":985:990   */\n      dup3\n        /* \"#utility.yul\":967:991   */\n      tag_72\n      jump\t// in\n    tag_98:\n        /* \"#utility.yul\":956:991   */\n      swap1\n      pop\n        /* \"#utility.yul\":901:997   */\n      swap2\n      swap1\n      pop\n      jump\t// out\n        /* \"#utility.yul\":1003:1125   */\n    tag_74:\n        /* \"#utility.yul\":1076:1100   */\n      tag_100\n        /* \"#utility.yul\":1094:1099   */\n      dup2\n        /* \"#utility.yul\":1076:1100   */\n      tag_73\n      jump\t// in\n    tag_100:\n        /* \"#utility.yul\":1069:1074   */\n      dup2\n        /* \"#utility.yul\":1066:1101   */\n      eq\n        /* \"#utility.yul\":1056:1119   */\n      tag_101\n      jumpi\n        /* \"#utility.yul\":1115:1116   */\n      0x00\n        /* \"#utility.yul\":1112:1113   */\n      dup1\n        /* \"#utility.yul\":1105:1117   */\n      revert\n        /* \"#utility.yul\":1056:1119   */\n    tag_101:\n        /* \"#utility.yul\":1003:1125   */\n      pop\n      jump\t// out\n        /* \"#utility.yul\":1131:1270   */\n    tag_75:\n        /* \"#utility.yul\":1177:1182   */\n      0x00\n        /* \"#utility.yul\":1215:1221   */\n      dup2\n        /* \"#utility.yul\":1202:1222   */\n      calldataload\n        /* \"#utility.yul\":1193:1222   */\n      swap1\n      pop\n        /* \"#utility.yul\":1231:1264   */\n      tag_103\n        /* \"#utility.yul\":1258:1263   */\n      dup2\n        /* \"#utility.yul\":1231:1264   */\n      tag_74\n      jump\t// in\n    tag_103:\n        /* \"#utility.yul\":1131:1270   */\n      swap3\n      swap2\n      pop\n      pop\n      jump\t// out\n        /* \"#utility.yul\":1276:1605   */\n    tag_24:\n        /* \"#utility.yul\":1335:1341   */\n      0x00\n        /* \"#utility.yul\":1384:1386   */\n      0x20\n        /* \"#utility.yul\":1372:1381   */\n      dup3\n        /* \"#utility.yul\":1363:1370   */\n      dup5\n        /* \"#utility.yul\":1359:1382   */\n      sub\n        /* \"#utility.yul\":1355:1387   */\n      slt\n        /* \"#utility.yul\":1352:1471   */\n      iszero\n      tag_105\n      jumpi\n        /* \"#utility.yul\":1390:1469   */\n      tag_106\n      tag_70\n      jump\t// in\n    tag_106:\n        /* \"#utility.yul\":1352:1471   */\n    tag_105:\n        /* \"#utility.yul\":1510:1511   */\n      0x00\n        /* \"#utility.yul\":1535:1588   */\n      tag_107\n        /* \"#utility.yul\":1580:1587   */\n      dup5\n        /* \"#utility.yul\":1571:1577   */\n      dup3\n        /* \"#utility.yul\":1560:1569   */\n      dup6\n        /* \"#utility.yul\":1556:1578   */\n      add\n        /* \"#utility.yul\":1535:1588   */\n      tag_75\n      jump\t// in\n    tag_107:\n        /* \"#utility.yul\":1525:1588   */\n      swap2\n      pop\n        /* \"#utility.yul\":1481:1598   */\n      pop\n        /* \"#utility.yul\":1276:1605   */\n      swap3\n      swap2\n      pop\n      pop\n      jump\t// out\n        /* \"#utility.yul\":1611:1729   */\n    tag_76:\n        /* \"#utility.yul\":1698:1722   */\n      tag_109\n        /* \"#utility.yul\":1716:1721   */\n      dup2\n        /* \"#utility.yul\":1698:1722   */\n      tag_73\n      jump\t// in\n    tag_109:\n        /* \"#utility.yul\":1693:1696   */\n      dup3\n        /* \"#utility.yul\":1686:1723   */\n      mstore\n        /* \"#utility.yul\":1611:1729   */\n      pop\n      pop\n      jump\t// out\n        /* \"#utility.yul\":1735:1957   */\n    tag_37:\n        /* \"#utility.yul\":1828:1832   */\n      0x00\n        /* \"#utility.yul\":1866:1868   */\n      0x20\n        /* \"#utility.yul\":1855:1864   */\n      dup3\n        /* \"#utility.yul\":1851:1869   */\n      add\n        /* \"#utility.yul\":1843:1869   */\n      swap1\n      pop\n        /* \"#utility.yul\":1879:1950   */\n      tag_111\n        /* \"#utility.yul\":1947:1948   */\n      0x00\n        /* \"#utility.yul\":1936:1945   */\n      dup4\n        /* \"#utility.yul\":1932:1949   */\n      add\n        /* \"#utility.yul\":1923:1929   */\n      dup5\n        /* \"#utility.yul\":1879:1950   */\n      tag_76\n      jump\t// in\n    tag_111:\n        /* \"#utility.yul\":1735:1957   */\n      swap3\n      swap2\n      pop\n      pop\n      jump\t// out\n        /* \"#utility.yul\":1963:2132   */\n    tag_77:\n        /* \"#utility.yul\":2047:2058   */\n      0x00\n        /* \"#utility.yul\":2081:2087   */\n      dup3\n        /* \"#utility.yul\":2076:2079   */\n      dup3\n        /* \"#utility.yul\":2069:2088   */\n      mstore\n        /* \"#utility.yul\":2121:2125   */\n      0x20\n        /* \"#utility.yul\":2116:2119   */\n      dup3\n        /* \"#utility.yul\":2112:2126   */\n      add\n        /* \"#utility.yul\":2097:2126   */\n      swap1\n      pop\n        /* \"#utility.yul\":1963:2132   */\n      swap3\n      swap2\n      pop\n      pop\n      jump\t// out\n        /* \"#utility.yul\":2138:2306   */\n    tag_78:\n        /* \"#utility.yul\":2278:2298   */\n      0x5468652061756374696f6e20656e6465642e0000000000000000000000000000\n        /* \"#utility.yul\":2274:2275   */\n      0x00\n        /* \"#utility.yul\":2266:2272   */\n      dup3\n        /* \"#utility.yul\":2262:2276   */\n      add\n        /* \"#utility.yul\":2255:2299   */\n      mstore\n        /* \"#utility.yul\":2138:2306   */\n      pop\n      jump\t// out\n        /* \"#utility.yul\":2312:2678   */\n    tag_79:\n        /* \"#utility.yul\":2454:2457   */\n      0x00\n        /* \"#utility.yul\":2475:2542   */\n      tag_115\n        /* \"#utility.yul\":2539:2541   */\n      0x12\n        /* \"#utility.yul\":2534:2537   */\n      dup4\n        /* \"#utility.yul\":2475:2542   */\n      tag_77\n      jump\t// in\n    tag_115:\n        /* \"#utility.yul\":2468:2542   */\n      swap2\n      pop\n        /* \"#utility.yul\":2551:2644   */\n      tag_116\n        /* \"#utility.yul\":2640:2643   */\n      dup3\n        /* \"#utility.yul\":2551:2644   */\n      tag_78\n      jump\t// in\n    tag_116:\n        /* \"#utility.yul\":2669:2671   */\n      0x20\n        /* \"#utility.yul\":2664:2667   */\n      dup3\n        /* \"#utility.yul\":2660:2672   */\n      add\n        /* \"#utility.yul\":2653:2672   */\n      swap1\n      pop\n        /* \"#utility.yul\":2312:2678   */\n      swap2\n      swap1\n      pop\n      jump\t// out\n        /* \"#utility.yul\":2684:3103   */\n    tag_52:\n        /* \"#utility.yul\":2850:2854   */\n      0x00\n        /* \"#utility.yul\":2888:2890   */\n      0x20\n        /* \"#utility.yul\":2877:2886   */\n      dup3\n        /* \"#utility.yul\":2873:2891   */\n      add\n        /* \"#utility.yul\":2865:2891   */\n      swap1\n      pop\n        /* \"#utility.yul\":2937:2946   */\n      dup2\n        /* \"#utility.yul\":2931:2935   */\n      dup2\n        /* \"#utility.yul\":2927:2947   */\n      sub\n        /* \"#utility.yul\":2923:2924   */\n      0x00\n        /* \"#utility.yul\":2912:2921   */\n      dup4\n        /* \"#utility.yul\":2908:2925   */\n      add\n        /* \"#utility.yul\":2901:2948   */\n      mstore\n        /* \"#utility.yul\":2965:3096   */\n      tag_118\n        /* \"#utility.yul\":3091:3095   */\n      dup2\n        /* \"#utility.yul\":2965:3096   */\n      tag_79\n      jump\t// in\n    tag_118:\n        /* \"#utility.yul\":2957:3096   */\n      swap1\n      pop\n        /* \"#utility.yul\":2684:3103   */\n      swap2\n      swap1\n      pop\n      jump\t// out\n        /* \"#utility.yul\":3109:3336   */\n    tag_80:\n        /* \"#utility.yul\":3249:3283   */\n      0x596f7572206f66666572206973206c6f776572207468616e2074686520626573\n        /* \"#utility.yul\":3245:3246   */\n      0x00\n        /* \"#utility.yul\":3237:3243   */\n      dup3\n        /* \"#utility.yul\":3233:3247   */\n      add\n        /* \"#utility.yul\":3226:3284   */\n      mstore\n        /* \"#utility.yul\":3318:3328   */\n      0x742076616c75652e000000000000000000000000000000000000000000000000\n        /* \"#utility.yul\":3313:3315   */\n      0x20\n        /* \"#utility.yul\":3305:3311   */\n      dup3\n        /* \"#utility.yul\":3301:3316   */\n      add\n        /* \"#utility.yul\":3294:3329   */\n      mstore\n        /* \"#utility.yul\":3109:3336   */\n      pop\n      jump\t// out\n        /* \"#utility.yul\":3342:3708   */\n    tag_81:\n        /* \"#utility.yul\":3484:3487   */\n      0x00\n        /* \"#utility.yul\":3505:3572   */\n      tag_121\n        /* \"#utility.yul\":3569:3571   */\n      0x28\n        /* \"#utility.yul\":3564:3567   */\n      dup4\n        /* \"#utility.yul\":3505:3572   */\n      tag_77\n      jump\t// in\n    tag_121:\n        /* \"#utility.yul\":3498:3572   */\n      swap2\n      pop\n        /* \"#utility.yul\":3581:3674   */\n      tag_122\n        /* \"#utility.yul\":3670:3673   */\n      dup3\n        /* \"#utility.yul\":3581:3674   */\n      tag_80\n      jump\t// in\n    tag_122:\n        /* \"#utility.yul\":3699:3701   */\n      0x40\n        /* \"#utility.yul\":3694:3697   */\n      dup3\n        /* \"#utility.yul\":3690:3702   */\n      add\n        /* \"#utility.yul\":3683:3702   */\n      swap1\n      pop\n        /* \"#utility.yul\":3342:3708   */\n      swap2\n      swap1\n      pop\n      jump\t// out\n        /* \"#utility.yul\":3714:4133   */\n    tag_55:\n        /* \"#utility.yul\":3880:3884   */\n      0x00\n        /* \"#utility.yul\":3918:3920   */\n      0x20\n        /* \"#utility.yul\":3907:3916   */\n      dup3\n        /* \"#utility.yul\":3903:3921   */\n      add\n        /* \"#utility.yul\":3895:3921   */\n      swap1\n      pop\n        /* \"#utility.yul\":3967:3976   */\n      dup2\n        /* \"#utility.yul\":3961:3965   */\n      dup2\n        /* \"#utility.yul\":3957:3977   */\n      sub\n        /* \"#utility.yul\":3953:3954   */\n      0x00\n        /* \"#utility.yul\":3942:3951   */\n      dup4\n        /* \"#utility.yul\":3938:3955   */\n      add\n        /* \"#utility.yul\":3931:3978   */\n      mstore\n        /* \"#utility.yul\":3995:4126   */\n      tag_124\n        /* \"#utility.yul\":4121:4125   */\n      dup2\n        /* \"#utility.yul\":3995:4126   */\n      tag_81\n      jump\t// in\n    tag_124:\n        /* \"#utility.yul\":3987:4126   */\n      swap1\n      pop\n        /* \"#utility.yul\":3714:4133   */\n      swap2\n      swap1\n      pop\n      jump\t// out\n        /* \"#utility.yul\":4139:4319   */\n    tag_82:\n        /* \"#utility.yul\":4187:4264   */\n      0x4e487b7100000000000000000000000000000000000000000000000000000000\n        /* \"#utility.yul\":4184:4185   */\n      0x00\n        /* \"#utility.yul\":4177:4265   */\n      mstore\n        /* \"#utility.yul\":4284:4288   */\n      0x11\n        /* \"#utility.yul\":4281:4282   */\n      0x04\n        /* \"#utility.yul\":4274:4289   */\n      mstore\n        /* \"#utility.yul\":4308:4312   */\n      0x24\n        /* \"#utility.yul\":4305:4306   */\n      0x00\n        /* \"#utility.yul\":4298:4313   */\n      revert\n        /* \"#utility.yul\":4325:4516   */\n    tag_58:\n        /* \"#utility.yul\":4365:4368   */\n      0x00\n        /* \"#utility.yul\":4384:4404   */\n      tag_127\n        /* \"#utility.yul\":4402:4403   */\n      dup3\n        /* \"#utility.yul\":4384:4404   */\n      tag_67\n      jump\t// in\n    tag_127:\n        /* \"#utility.yul\":4379:4404   */\n      swap2\n      pop\n        /* \"#utility.yul\":4418:4438   */\n      tag_128\n        /* \"#utility.yul\":4436:4437   */\n      dup4\n        /* \"#utility.yul\":4418:4438   */\n      tag_67\n      jump\t// in\n    tag_128:\n        /* \"#utility.yul\":4413:4438   */\n      swap3\n      pop\n        /* \"#utility.yul\":4461:4462   */\n      dup3\n        /* \"#utility.yul\":4458:4459   */\n      dup3\n        /* \"#utility.yul\":4454:4463   */\n      add\n        /* \"#utility.yul\":4447:4463   */\n      swap1\n      pop\n        /* \"#utility.yul\":4482:4485   */\n      dup1\n        /* \"#utility.yul\":4479:4480   */\n      dup3\n        /* \"#utility.yul\":4476:4486   */\n      gt\n        /* \"#utility.yul\":4473:4509   */\n      iszero\n      tag_129\n      jumpi\n        /* \"#utility.yul\":4489:4507   */\n      tag_130\n      tag_82\n      jump\t// in\n    tag_130:\n        /* \"#utility.yul\":4473:4509   */\n    tag_129:\n        /* \"#utility.yul\":4325:4516   */\n      swap3\n      swap2\n      pop\n      pop\n      jump\t// out\n        /* \"#utility.yul\":4522:4703   */\n    tag_83:\n        /* \"#utility.yul\":4662:4695   */\n      0x596f75206469646e27742062656174207468652062657374206f666665722e00\n        /* \"#utility.yul\":4658:4659   */\n      0x00\n        /* \"#utility.yul\":4650:4656   */\n      dup3\n        /* \"#utility.yul\":4646:4660   */\n      add\n        /* \"#utility.yul\":4639:4696   */\n      mstore\n        /* \"#utility.yul\":4522:4703   */\n      pop\n      jump\t// out\n        /* \"#utility.yul\":4709:5075   */\n    tag_84:\n        /* \"#utility.yul\":4851:4854   */\n      0x00\n        /* \"#utility.yul\":4872:4939   */\n      tag_133\n        /* \"#utility.yul\":4936:4938   */\n      0x1f\n        /* \"#utility.yul\":4931:4934   */\n      dup4\n        /* \"#utility.yul\":4872:4939   */\n      tag_77\n      jump\t// in\n    tag_133:\n        /* \"#utility.yul\":4865:4939   */\n      swap2\n      pop\n        /* \"#utility.yul\":4948:5041   */\n      tag_134\n        /* \"#utility.yul\":5037:5040   */\n      dup3\n        /* \"#utility.yul\":4948:5041   */\n      tag_83\n      jump\t// in\n    tag_134:\n        /* \"#utility.yul\":5066:5068   */\n      0x20\n        /* \"#utility.yul\":5061:5064   */\n      dup3\n        /* \"#utility.yul\":5057:5069   */\n      add\n        /* \"#utility.yul\":5050:5069   */\n      swap1\n      pop\n        /* \"#utility.yul\":4709:5075   */\n      swap2\n      swap1\n      pop\n      jump\t// out\n        /* \"#utility.yul\":5081:5500   */\n    tag_61:\n        /* \"#utility.yul\":5247:5251   */\n      0x00\n        /* \"#utility.yul\":5285:5287   */\n      0x20\n        /* \"#utility.yul\":5274:5283   */\n      dup3\n        /* \"#utility.yul\":5270:5288   */\n      add\n        /* \"#utility.yul\":5262:5288   */\n      swap1\n      pop\n        /* \"#utility.yul\":5334:5343   */\n      dup2\n        /* \"#utility.yul\":5328:5332   */\n      dup2\n        /* \"#utility.yul\":5324:5344   */\n      sub\n        /* \"#utility.yul\":5320:5321   */\n      0x00\n        /* \"#utility.yul\":5309:5318   */\n      dup4\n        /* \"#utility.yul\":5305:5322   */\n      add\n        /* \"#utility.yul\":5298:5345   */\n      mstore\n        /* \"#utility.yul\":5362:5493   */\n      tag_136\n        /* \"#utility.yul\":5488:5492   */\n      dup2\n        /* \"#utility.yul\":5362:5493   */\n      tag_84\n      jump\t// in\n    tag_136:\n        /* \"#utility.yul\":5354:5493   */\n      swap1\n      pop\n        /* \"#utility.yul\":5081:5500   */\n      swap2\n      swap1\n      pop\n      jump\t// out\n        /* \"#utility.yul\":5506:5683   */\n    tag_85:\n        /* \"#utility.yul\":5646:5675   */\n      0x596f7520646f6e27742068617665207065726d697373696f6e732e0000000000\n        /* \"#utility.yul\":5642:5643   */\n      0x00\n        /* \"#utility.yul\":5634:5640   */\n      dup3\n        /* \"#utility.yul\":5630:5644   */\n      add\n        /* \"#utility.yul\":5623:5676   */\n      mstore\n        /* \"#utility.yul\":5506:5683   */\n      pop\n      jump\t// out\n        /* \"#utility.yul\":5689:6055   */\n    tag_86:\n        /* \"#utility.yul\":5831:5834   */\n      0x00\n        /* \"#utility.yul\":5852:5919   */\n      tag_139\n        /* \"#utility.yul\":5916:5918   */\n      0x1b\n        /* \"#utility.yul\":5911:5914   */\n      dup4\n        /* \"#utility.yul\":5852:5919   */\n      tag_77\n      jump\t// in\n    tag_139:\n        /* \"#utility.yul\":5845:5919   */\n      swap2\n      pop\n        /* \"#utility.yul\":5928:6021   */\n      tag_140\n        /* \"#utility.yul\":6017:6020   */\n      dup3\n        /* \"#utility.yul\":5928:6021   */\n      tag_85\n      jump\t// in\n    tag_140:\n        /* \"#utility.yul\":6046:6048   */\n      0x20\n        /* \"#utility.yul\":6041:6044   */\n      dup3\n        /* \"#utility.yul\":6037:6049   */\n      add\n        /* \"#utility.yul\":6030:6049   */\n      swap1\n      pop\n        /* \"#utility.yul\":5689:6055   */\n      swap2\n      swap1\n      pop\n      jump\t// out\n        /* \"#utility.yul\":6061:6480   */\n    tag_66:\n        /* \"#utility.yul\":6227:6231   */\n      0x00\n        /* \"#utility.yul\":6265:6267   */\n      0x20\n        /* \"#utility.yul\":6254:6263   */\n      dup3\n        /* \"#utility.yul\":6250:6268   */\n      add\n        /* \"#utility.yul\":6242:6268   */\n      swap1\n      pop\n        /* \"#utility.yul\":6314:6323   */\n      dup2\n        /* \"#utility.yul\":6308:6312   */\n      dup2\n        /* \"#utility.yul\":6304:6324   */\n      sub\n        /* \"#utility.yul\":6300:6301   */\n      0x00\n        /* \"#utility.yul\":6289:6298   */\n      dup4\n        /* \"#utility.yul\":6285:6302   */\n      add\n        /* \"#utility.yul\":6278:6325   */\n      mstore\n        /* \"#utility.yul\":6342:6473   */\n      tag_142\n        /* \"#utility.yul\":6468:6472   */\n      dup2\n        /* \"#utility.yul\":6342:6473   */\n      tag_86\n      jump\t// in\n    tag_142:\n        /* \"#utility.yul\":6334:6473   */\n      swap1\n      pop\n        /* \"#utility.yul\":6061:6480   */\n      swap2\n      swap1\n      pop\n      jump\t// out\n\n    auxdata: 0xa264697066735822122072f5b281cb29f276681bd94307d9b80ff0751ab14b6dab08b0c6a141e90830b264736f6c634300081a0033\n}\n",
				"bytecode": {
					"linkReferences": {},
					"object": "6080604052348015600e575f80fd5b503360055f6101000a81548173ffffffffffffffffffffffffffffffffffffffff021916908373ffffffffffffffffffffffffffffffffffffffff160217905550633b9aca005f819055504260018190555062093a80600154606f919060af565b60028190555060db565b5f819050919050565b7f4e487b71000000000000000000000000000000000000000000000000000000005f52601160045260245ffd5b5f60b7826079565b915060c0836079565b925082820190508082111560d55760d46082565b5b92915050565b6107d4806100e85f395ff3fe608060405260043610610085575f3560e01c80637a433acb116100585780637a433acb146101235780638da5cb5b1461014d578063e08de3a414610177578063f8b75fb5146101a1578063fe67a54b146101cb57610085565b8063099a019d146100895780630b97bc86146100b35780630f2efc66146100dd578063523cb4d914610119575b5f80fd5b348015610094575f80fd5b5061009d6101d5565b6040516100aa919061049e565b60405180910390f35b3480156100be575f80fd5b506100c76101de565b6040516100d4919061049e565b60405180910390f35b3480156100e8575f80fd5b5061010360048036038101906100fe9190610515565b6101e4565b604051610110919061049e565b60405180910390f35b6101216101f9565b005b34801561012e575f80fd5b50610137610381565b604051610144919061049e565b60405180910390f35b348015610158575f80fd5b50610161610386565b60405161016e919061054f565b60405180910390f35b348015610182575f80fd5b5061018b6103ab565b604051610198919061054f565b60405180910390f35b3480156101ac575f80fd5b506101b56103d3565b6040516101c2919061049e565b60405180910390f35b6101d36103d9565b005b5f600354905090565b60015481565b6006602052805f5260405f205f915090505481565b5f600460149054906101000a900460ff1660ff161461024d576040517f08c379a0000000000000000000000000000000000000000000000000000000008152600401610244906105c2565b60405180910390fd5b5f3490506003548111610295576040517f08c379a000000000000000000000000000000000000000000000000000000000815260040161028c90610650565b60405180910390fd5b600354811115610343575f339050816003819055508060045f6101000a81548173ffffffffffffffffffffffffffffffffffffffff021916908373ffffffffffffffffffffffffffffffffffffffff1602179055508160065f8373ffffffffffffffffffffffffffffffffffffffff1673ffffffffffffffffffffffffffffffffffffffff1681526020019081526020015f205f828254610336919061069b565b925050819055505061037e565b6040517f08c379a000000000000000000000000000000000000000000000000000000000815260040161037590610718565b60405180910390fd5b50565b5f5481565b60055f9054906101000a900473ffffffffffffffffffffffffffffffffffffffff1681565b5f60045f9054906101000a900473ffffffffffffffffffffffffffffffffffffffff16905090565b60025481565b3373ffffffffffffffffffffffffffffffffffffffff1660055f9054906101000a900473ffffffffffffffffffffffffffffffffffffffff1673ffffffffffffffffffffffffffffffffffffffff1614610468576040517f08c379a000000000000000000000000000000000000000000000000000000000815260040161045f90610780565b60405180910390fd5b6001600460146101000a81548160ff021916908360ff160217905550565b5f819050919050565b61049881610486565b82525050565b5f6020820190506104b15f83018461048f565b92915050565b5f80fd5b5f73ffffffffffffffffffffffffffffffffffffffff82169050919050565b5f6104e4826104bb565b9050919050565b6104f4816104da565b81146104fe575f80fd5b50565b5f8135905061050f816104eb565b92915050565b5f6020828403121561052a576105296104b7565b5b5f61053784828501610501565b91505092915050565b610549816104da565b82525050565b5f6020820190506105625f830184610540565b92915050565b5f82825260208201905092915050565b7f5468652061756374696f6e20656e6465642e00000000000000000000000000005f82015250565b5f6105ac601283610568565b91506105b782610578565b602082019050919050565b5f6020820190508181035f8301526105d9816105a0565b9050919050565b7f596f7572206f66666572206973206c6f776572207468616e20746865206265735f8201527f742076616c75652e000000000000000000000000000000000000000000000000602082015250565b5f61063a602883610568565b9150610645826105e0565b604082019050919050565b5f6020820190508181035f8301526106678161062e565b9050919050565b7f4e487b71000000000000000000000000000000000000000000000000000000005f52601160045260245ffd5b5f6106a582610486565b91506106b083610486565b92508282019050808211156106c8576106c761066e565b5b92915050565b7f596f75206469646e27742062656174207468652062657374206f666665722e005f82015250565b5f610702601f83610568565b915061070d826106ce565b602082019050919050565b5f6020820190508181035f83015261072f816106f6565b9050919050565b7f596f7520646f6e27742068617665207065726d697373696f6e732e00000000005f82015250565b5f61076a601b83610568565b915061077582610736565b602082019050919050565b5f6020820190508181035f8301526107978161075e565b905091905056fea264697066735822122072f5b281cb29f276681bd94307d9b80ff0751ab14b6dab08b0c6a141e90830b264736f6c634300081a0033",
					"opcodes": "PUSH1 0x80 PUSH1 0x40 MSTORE CALLVALUE DUP1 ISZERO PUSH1 0xE JUMPI PUSH0 DUP1 REVERT JUMPDEST POP CALLER PUSH1 0x5 PUSH0 PUSH2 0x100 EXP DUP2 SLOAD DUP2 PUSH20 0xFFFFFFFFFFFFFFFFFFFFFFFFFFFFFFFFFFFFFFFF MUL NOT AND SWAP1 DUP4 PUSH20 0xFFFFFFFFFFFFFFFFFFFFFFFFFFFFFFFFFFFFFFFF AND MUL OR SWAP1 SSTORE POP PUSH4 0x3B9ACA00 PUSH0 DUP2 SWAP1 SSTORE POP TIMESTAMP PUSH1 0x1 DUP2 SWAP1 SSTORE POP PUSH3 0x93A80 PUSH1 0x1 SLOAD PUSH1 0x6F SWAP2 SWAP1 PUSH1 0xAF JUMP JUMPDEST PUSH1 0x2 DUP2 SWAP1 SSTORE POP PUSH1 0xDB JUMP JUMPDEST PUSH0 DUP2 SWAP1 POP SWAP2 SWAP1 POP JUMP JUMPDEST PUSH32 0x4E487B7100000000000000000000000000000000000000000000000000000000 PUSH0 MSTORE PUSH1 0x11 PUSH1 0x4 MSTORE PUSH1 0x24 PUSH0 REVERT JUMPDEST PUSH0 PUSH1 0xB7 DUP3 PUSH1 0x79 JUMP JUMPDEST SWAP2 POP PUSH1 0xC0 DUP4 PUSH1 0x79 JUMP JUMPDEST SWAP3 POP DUP3 DUP3 ADD SWAP1 POP DUP1 DUP3 GT ISZERO PUSH1 0xD5 JUMPI PUSH1 0xD4 PUSH1 0x82 JUMP JUMPDEST JUMPDEST SWAP3 SWAP2 POP POP JUMP JUMPDEST PUSH2 0x7D4 DUP1 PUSH2 0xE8 PUSH0 CODECOPY PUSH0 RETURN INVALID PUSH1 0x80 PUSH1 0x40 MSTORE PUSH1 0x4 CALLDATASIZE LT PUSH2 0x85 JUMPI PUSH0 CALLDATALOAD PUSH1 0xE0 SHR DUP1 PUSH4 0x7A433ACB GT PUSH2 0x58 JUMPI DUP1 PUSH4 0x7A433ACB EQ PUSH2 0x123 JUMPI DUP1 PUSH4 0x8DA5CB5B EQ PUSH2 0x14D JUMPI DUP1 PUSH4 0xE08DE3A4 EQ PUSH2 0x177 JUMPI DUP1 PUSH4 0xF8B75FB5 EQ PUSH2 0x1A1 JUMPI DUP1 PUSH4 0xFE67A54B EQ PUSH2 0x1CB JUMPI PUSH2 0x85 JUMP JUMPDEST DUP1 PUSH4 0x99A019D EQ PUSH2 0x89 JUMPI DUP1 PUSH4 0xB97BC86 EQ PUSH2 0xB3 JUMPI DUP1 PUSH4 0xF2EFC66 EQ PUSH2 0xDD JUMPI DUP1 PUSH4 0x523CB4D9 EQ PUSH2 0x119 JUMPI JUMPDEST PUSH0 DUP1 REVERT JUMPDEST CALLVALUE DUP1 ISZERO PUSH2 0x94 JUMPI PUSH0 DUP1 REVERT JUMPDEST POP PUSH2 0x9D PUSH2 0x1D5 JUMP JUMPDEST PUSH1 0x40 MLOAD PUSH2 0xAA SWAP2 SWAP1 PUSH2 0x49E JUMP JUMPDEST PUSH1 0x40 MLOAD DUP1 SWAP2 SUB SWAP1 RETURN JUMPDEST CALLVALUE DUP1 ISZERO PUSH2 0xBE JUMPI PUSH0 DUP1 REVERT JUMPDEST POP PUSH2 0xC7 PUSH2 0x1DE JUMP JUMPDEST PUSH1 0x40 MLOAD PUSH2 0xD4 SWAP2 SWAP1 PUSH2 0x49E JUMP JUMPDEST PUSH1 0x40 MLOAD DUP1 SWAP2 SUB SWAP1 RETURN JUMPDEST CALLVALUE DUP1 ISZERO PUSH2 0xE8 JUMPI PUSH0 DUP1 REVERT JUMPDEST POP PUSH2 0x103 PUSH1 0x4 DUP1 CALLDATASIZE SUB DUP2 ADD SWAP1 PUSH2 0xFE SWAP2 SWAP1 PUSH2 0x515 JUMP JUMPDEST PUSH2 0x1E4 JUMP JUMPDEST PUSH1 0x40 MLOAD PUSH2 0x110 SWAP2 SWAP1 PUSH2 0x49E JUMP JUMPDEST PUSH1 0x40 MLOAD DUP1 SWAP2 SUB SWAP1 RETURN JUMPDEST PUSH2 0x121 PUSH2 0x1F9 JUMP JUMPDEST STOP JUMPDEST CALLVALUE DUP1 ISZERO PUSH2 0x12E JUMPI PUSH0 DUP1 REVERT JUMPDEST POP PUSH2 0x137 PUSH2 0x381 JUMP JUMPDEST PUSH1 0x40 MLOAD PUSH2 0x144 SWAP2 SWAP1 PUSH2 0x49E JUMP JUMPDEST PUSH1 0x40 MLOAD DUP1 SWAP2 SUB SWAP1 RETURN JUMPDEST CALLVALUE DUP1 ISZERO PUSH2 0x158 JUMPI PUSH0 DUP1 REVERT JUMPDEST POP PUSH2 0x161 PUSH2 0x386 JUMP JUMPDEST PUSH1 0x40 MLOAD PUSH2 0x16E SWAP2 SWAP1 PUSH2 0x54F JUMP JUMPDEST PUSH1 0x40 MLOAD DUP1 SWAP2 SUB SWAP1 RETURN JUMPDEST CALLVALUE DUP1 ISZERO PUSH2 0x182 JUMPI PUSH0 DUP1 REVERT JUMPDEST POP PUSH2 0x18B PUSH2 0x3AB JUMP JUMPDEST PUSH1 0x40 MLOAD PUSH2 0x198 SWAP2 SWAP1 PUSH2 0x54F JUMP JUMPDEST PUSH1 0x40 MLOAD DUP1 SWAP2 SUB SWAP1 RETURN JUMPDEST CALLVALUE DUP1 ISZERO PUSH2 0x1AC JUMPI PUSH0 DUP1 REVERT JUMPDEST POP PUSH2 0x1B5 PUSH2 0x3D3 JUMP JUMPDEST PUSH1 0x40 MLOAD PUSH2 0x1C2 SWAP2 SWAP1 PUSH2 0x49E JUMP JUMPDEST PUSH1 0x40 MLOAD DUP1 SWAP2 SUB SWAP1 RETURN JUMPDEST PUSH2 0x1D3 PUSH2 0x3D9 JUMP JUMPDEST STOP JUMPDEST PUSH0 PUSH1 0x3 SLOAD SWAP1 POP SWAP1 JUMP JUMPDEST PUSH1 0x1 SLOAD DUP2 JUMP JUMPDEST PUSH1 0x6 PUSH1 0x20 MSTORE DUP1 PUSH0 MSTORE PUSH1 0x40 PUSH0 KECCAK256 PUSH0 SWAP2 POP SWAP1 POP SLOAD DUP2 JUMP JUMPDEST PUSH0 PUSH1 0x4 PUSH1 0x14 SWAP1 SLOAD SWAP1 PUSH2 0x100 EXP SWAP1 DIV PUSH1 0xFF AND PUSH1 0xFF AND EQ PUSH2 0x24D JUMPI PUSH1 0x40 MLOAD PUSH32 0x8C379A000000000000000000000000000000000000000000000000000000000 DUP2 MSTORE PUSH1 0x4 ADD PUSH2 0x244 SWAP1 PUSH2 0x5C2 JUMP JUMPDEST PUSH1 0x40 MLOAD DUP1 SWAP2 SUB SWAP1 REVERT JUMPDEST PUSH0 CALLVALUE SWAP1 POP PUSH1 0x3 SLOAD DUP2 GT PUSH2 0x295 JUMPI PUSH1 0x40 MLOAD PUSH32 0x8C379A000000000000000000000000000000000000000000000000000000000 DUP2 MSTORE PUSH1 0x4 ADD PUSH2 0x28C SWAP1 PUSH2 0x650 JUMP JUMPDEST PUSH1 0x40 MLOAD DUP1 SWAP2 SUB SWAP1 REVERT JUMPDEST PUSH1 0x3 SLOAD DUP2 GT ISZERO PUSH2 0x343 JUMPI PUSH0 CALLER SWAP1 POP DUP2 PUSH1 0x3 DUP2 SWAP1 SSTORE POP DUP1 PUSH1 0x4 PUSH0 PUSH2 0x100 EXP DUP2 SLOAD DUP2 PUSH20 0xFFFFFFFFFFFFFFFFFFFFFFFFFFFFFFFFFFFFFFFF MUL NOT AND SWAP1 DUP4 PUSH20 0xFFFFFFFFFFFFFFFFFFFFFFFFFFFFFFFFFFFFFFFF AND MUL OR SWAP1 SSTORE POP DUP2 PUSH1 0x6 PUSH0 DUP4 PUSH20 0xFFFFFFFFFFFFFFFFFFFFFFFFFFFFFFFFFFFFFFFF AND PUSH20 0xFFFFFFFFFFFFFFFFFFFFFFFFFFFFFFFFFFFFFFFF AND DUP2 MSTORE PUSH1 0x20 ADD SWAP1 DUP2 MSTORE PUSH1 0x20 ADD PUSH0 KECCAK256 PUSH0 DUP3 DUP3 SLOAD PUSH2 0x336 SWAP2 SWAP1 PUSH2 0x69B JUMP JUMPDEST SWAP3 POP POP DUP2 SWAP1 SSTORE POP POP PUSH2 0x37E JUMP JUMPDEST PUSH1 0x40 MLOAD PUSH32 0x8C379A000000000000000000000000000000000000000000000000000000000 DUP2 MSTORE PUSH1 0x4 ADD PUSH2 0x375 SWAP1 PUSH2 0x718 JUMP JUMPDEST PUSH1 0x40 MLOAD DUP1 SWAP2 SUB SWAP1 REVERT JUMPDEST POP JUMP JUMPDEST PUSH0 SLOAD DUP2 JUMP JUMPDEST PUSH1 0x5 PUSH0 SWAP1 SLOAD SWAP1 PUSH2 0x100 EXP SWAP1 DIV PUSH20 0xFFFFFFFFFFFFFFFFFFFFFFFFFFFFFFFFFFFFFFFF AND DUP2 JUMP JUMPDEST PUSH0 PUSH1 0x4 PUSH0 SWAP1 SLOAD SWAP1 PUSH2 0x100 EXP SWAP1 DIV PUSH20 0xFFFFFFFFFFFFFFFFFFFFFFFFFFFFFFFFFFFFFFFF AND SWAP1 POP SWAP1 JUMP JUMPDEST PUSH1 0x2 SLOAD DUP2 JUMP JUMPDEST CALLER PUSH20 0xFFFFFFFFFFFFFFFFFFFFFFFFFFFFFFFFFFFFFFFF AND PUSH1 0x5 PUSH0 SWAP1 SLOAD SWAP1 PUSH2 0x100 EXP SWAP1 DIV PUSH20 0xFFFFFFFFFFFFFFFFFFFFFFFFFFFFFFFFFFFFFFFF AND PUSH20 0xFFFFFFFFFFFFFFFFFFFFFFFFFFFFFFFFFFFFFFFF AND EQ PUSH2 0x468 JUMPI PUSH1 0x40 MLOAD PUSH32 0x8C379A000000000000000000000000000000000000000000000000000000000 DUP2 MSTORE PUSH1 0x4 ADD PUSH2 0x45F SWAP1 PUSH2 0x780 JUMP JUMPDEST PUSH1 0x40 MLOAD DUP1 SWAP2 SUB SWAP1 REVERT JUMPDEST PUSH1 0x1 PUSH1 0x4 PUSH1 0x14 PUSH2 0x100 EXP DUP2 SLOAD DUP2 PUSH1 0xFF MUL NOT AND SWAP1 DUP4 PUSH1 0xFF AND MUL OR SWAP1 SSTORE POP JUMP JUMPDEST PUSH0 DUP2 SWAP1 POP SWAP2 SWAP1 POP JUMP JUMPDEST PUSH2 0x498 DUP2 PUSH2 0x486 JUMP JUMPDEST DUP3 MSTORE POP POP JUMP JUMPDEST PUSH0 PUSH1 0x20 DUP3 ADD SWAP1 POP PUSH2 0x4B1 PUSH0 DUP4 ADD DUP5 PUSH2 0x48F JUMP JUMPDEST SWAP3 SWAP2 POP POP JUMP JUMPDEST PUSH0 DUP1 REVERT JUMPDEST PUSH0 PUSH20 0xFFFFFFFFFFFFFFFFFFFFFFFFFFFFFFFFFFFFFFFF DUP3 AND SWAP1 POP SWAP2 SWAP1 POP JUMP JUMPDEST PUSH0 PUSH2 0x4E4 DUP3 PUSH2 0x4BB JUMP JUMPDEST SWAP1 POP SWAP2 SWAP1 POP JUMP JUMPDEST PUSH2 0x4F4 DUP2 PUSH2 0x4DA JUMP JUMPDEST DUP2 EQ PUSH2 0x4FE JUMPI PUSH0 DUP1 REVERT JUMPDEST POP JUMP JUMPDEST PUSH0 DUP2 CALLDATALOAD SWAP1 POP PUSH2 0x50F DUP2 PUSH2 0x4EB JUMP JUMPDEST SWAP3 SWAP2 POP POP JUMP JUMPDEST PUSH0 PUSH1 0x20 DUP3 DUP5 SUB SLT ISZERO PUSH2 0x52A JUMPI PUSH2 0x529 PUSH2 0x4B7 JUMP JUMPDEST JUMPDEST PUSH0 PUSH2 0x537 DUP5 DUP3 DUP6 ADD PUSH2 0x501 JUMP JUMPDEST SWAP2 POP POP SWAP3 SWAP2 POP POP JUMP JUMPDEST PUSH2 0x549 DUP2 PUSH2 0x4DA JUMP JUMPDEST DUP3 MSTORE POP POP JUMP JUMPDEST PUSH0 PUSH1 0x20 DUP3 ADD SWAP1 POP PUSH2 0x562 PUSH0 DUP4 ADD DUP5 PUSH2 0x540 JUMP JUMPDEST SWAP3 SWAP2 POP POP JUMP JUMPDEST PUSH0 DUP3 DUP3 MSTORE PUSH1 0x20 DUP3 ADD SWAP1 POP SWAP3 SWAP2 POP POP JUMP JUMPDEST PUSH32 0x5468652061756374696F6E20656E6465642E0000000000000000000000000000 PUSH0 DUP3 ADD MSTORE POP JUMP JUMPDEST PUSH0 PUSH2 0x5AC PUSH1 0x12 DUP4 PUSH2 0x568 JUMP JUMPDEST SWAP2 POP PUSH2 0x5B7 DUP3 PUSH2 0x578 JUMP JUMPDEST PUSH1 0x20 DUP3 ADD SWAP1 POP SWAP2 SWAP1 POP JUMP JUMPDEST PUSH0 PUSH1 0x20 DUP3 ADD SWAP1 POP DUP2 DUP2 SUB PUSH0 DUP4 ADD MSTORE PUSH2 0x5D9 DUP2 PUSH2 0x5A0 JUMP JUMPDEST SWAP1 POP SWAP2 SWAP1 POP JUMP JUMPDEST PUSH32 0x596F7572206F66666572206973206C6F776572207468616E2074686520626573 PUSH0 DUP3 ADD MSTORE PUSH32 0x742076616C75652E000000000000000000000000000000000000000000000000 PUSH1 0x20 DUP3 ADD MSTORE POP JUMP JUMPDEST PUSH0 PUSH2 0x63A PUSH1 0x28 DUP4 PUSH2 0x568 JUMP JUMPDEST SWAP2 POP PUSH2 0x645 DUP3 PUSH2 0x5E0 JUMP JUMPDEST PUSH1 0x40 DUP3 ADD SWAP1 POP SWAP2 SWAP1 POP JUMP JUMPDEST PUSH0 PUSH1 0x20 DUP3 ADD SWAP1 POP DUP2 DUP2 SUB PUSH0 DUP4 ADD MSTORE PUSH2 0x667 DUP2 PUSH2 0x62E JUMP JUMPDEST SWAP1 POP SWAP2 SWAP1 POP JUMP JUMPDEST PUSH32 0x4E487B7100000000000000000000000000000000000000000000000000000000 PUSH0 MSTORE PUSH1 0x11 PUSH1 0x4 MSTORE PUSH1 0x24 PUSH0 REVERT JUMPDEST PUSH0 PUSH2 0x6A5 DUP3 PUSH2 0x486 JUMP JUMPDEST SWAP2 POP PUSH2 0x6B0 DUP4 PUSH2 0x486 JUMP JUMPDEST SWAP3 POP DUP3 DUP3 ADD SWAP1 POP DUP1 DUP3 GT ISZERO PUSH2 0x6C8 JUMPI PUSH2 0x6C7 PUSH2 0x66E JUMP JUMPDEST JUMPDEST SWAP3 SWAP2 POP POP JUMP JUMPDEST PUSH32 0x596F75206469646E27742062656174207468652062657374206F666665722E00 PUSH0 DUP3 ADD MSTORE POP JUMP JUMPDEST PUSH0 PUSH2 0x702 PUSH1 0x1F DUP4 PUSH2 0x568 JUMP JUMPDEST SWAP2 POP PUSH2 0x70D DUP3 PUSH2 0x6CE JUMP JUMPDEST PUSH1 0x20 DUP3 ADD SWAP1 POP SWAP2 SWAP1 POP JUMP JUMPDEST PUSH0 PUSH1 0x20 DUP3 ADD SWAP1 POP DUP2 DUP2 SUB PUSH0 DUP4 ADD MSTORE PUSH2 0x72F DUP2 PUSH2 0x6F6 JUMP JUMPDEST SWAP1 POP SWAP2 SWAP1 POP JUMP JUMPDEST PUSH32 0x596F7520646F6E27742068617665207065726D697373696F6E732E0000000000 PUSH0 DUP3 ADD MSTORE POP JUMP JUMPDEST PUSH0 PUSH2 0x76A PUSH1 0x1B DUP4 PUSH2 0x568 JUMP JUMPDEST SWAP2 POP PUSH2 0x775 DUP3 PUSH2 0x736 JUMP JUMPDEST PUSH1 0x20 DUP3 ADD SWAP1 POP SWAP2 SWAP1 POP JUMP JUMPDEST PUSH0 PUSH1 0x20 DUP3 ADD SWAP1 POP DUP2 DUP2 SUB PUSH0 DUP4 ADD MSTORE PUSH2 0x797 DUP2 PUSH2 0x75E JUMP JUMPDEST SWAP1 POP SWAP2 SWAP1 POP JUMP INVALID LOG2 PUSH5 0x6970667358 0x22 SLT KECCAK256 PUSH19 0xF5B281CB29F276681BD94307D9B80FF0751AB1 0x4B PUSH14 0xAB08B0C6A141E90830B264736F6C PUSH4 0x4300081A STOP CALLER "
				},
				"gasEstimates": {
					"creation": {
						"codeDepositCost": "400800",
						"executionCost": "infinite",
						"totalCost": "infinite"
					},
					"external": {
						"bidEntered(address)": "2847",
						"durationTime()": "2491",
						"endAuction()": "26693",
						"getBid()": "2433",
						"getWinnwrBidder()": "2559",
						"owner()": "2530",
						"setBid()": "infinite",
						"startDate()": "2448",
						"startinglValue()": "2424"
					}
				},
				"methodIdentifiers": {
					"bidEntered(address)": "0f2efc66",
					"durationTime()": "f8b75fb5",
					"endAuction()": "fe67a54b",
					"getBid()": "099a019d",
					"getWinnwrBidder()": "e08de3a4",
					"owner()": "8da5cb5b",
					"setBid()": "523cb4d9",
					"startDate()": "0b97bc86",
					"startinglValue()": "7a433acb"
				}
			},
			"storageLayout": {
				"storage": [
					{
						"astId": 3,
						"contract": "AuctionContract.sol:Auctions",
						"label": "startinglValue",
						"offset": 0,
						"slot": "0",
						"type": "t_uint256"
					},
					{
						"astId": 5,
						"contract": "AuctionContract.sol:Auctions",
						"label": "startDate",
						"offset": 0,
						"slot": "1",
						"type": "t_uint256"
					},
					{
						"astId": 7,
						"contract": "AuctionContract.sol:Auctions",
						"label": "durationTime",
						"offset": 0,
						"slot": "2",
						"type": "t_uint256"
					},
					{
						"astId": 9,
						"contract": "AuctionContract.sol:Auctions",
						"label": "bestOffer",
						"offset": 0,
						"slot": "3",
						"type": "t_uint256"
					},
					{
						"astId": 11,
						"contract": "AuctionContract.sol:Auctions",
						"label": "winnerBidder",
						"offset": 0,
						"slot": "4",
						"type": "t_address"
					},
					{
						"astId": 13,
						"contract": "AuctionContract.sol:Auctions",
						"label": "checkpiont",
						"offset": 20,
						"slot": "4",
						"type": "t_uint8"
					},
					{
						"astId": 15,
						"contract": "AuctionContract.sol:Auctions",
						"label": "owner",
						"offset": 0,
						"slot": "5",
						"type": "t_address"
					},
					{
						"astId": 19,
						"contract": "AuctionContract.sol:Auctions",
						"label": "bidEntered",
						"offset": 0,
						"slot": "6",
						"type": "t_mapping(t_address,t_uint256)"
					}
				],
				"types": {
					"t_address": {
						"encoding": "inplace",
						"label": "address",
						"numberOfBytes": "20"
					},
					"t_mapping(t_address,t_uint256)": {
						"encoding": "mapping",
						"key": "t_address",
						"label": "mapping(address => uint256)",
						"numberOfBytes": "32",
						"value": "t_uint256"
					},
					"t_uint256": {
						"encoding": "inplace",
						"label": "uint256",
						"numberOfBytes": "32"
					},
					"t_uint8": {
						"encoding": "inplace",
						"label": "uint8",
						"numberOfBytes": "1"
					}
				}
			},
			"userdoc": {
				"kind": "user",
				"methods": {},
				"version": 1
			}
		}
	}
}